S00D000054696D65722E7372656316
S11300000C942A000C9434000C9434000C943400A6
S11300100C9434000C9434000C9434000C9434008C
S11300200C9434000C9434000C9452000C943D0055
S11300300C9434000C9434000C9434000C9434006C
S11300400C9434000C9434000C9434000C9434005C
S11300500C94340011241FBECFE5D8E0DEBFCDBF21
S11300600E9436000C946B000C94000087B38860E7
S113007087BB82ED0E946400FFCF1F920F920FB6E0
S11300800F9211248F939F9398B388E0892788BB9C
S113009088B7816088BF9F918F910F900FBE0F909A
S11300A01F9018951F920F920FB60F9211248F93E1
S11300B09F9398B388E0892788BB9F918F910F9075
S11300C00FBE0F901F9018959DE193BF8CBF82E0E7
S10D00D089BF78940895F894FFCFD7
S9030000FC
