:100000000C942A000C9434000C9434000C943400AA
:100010000C9434000C9434000C9434000C94340090
:100020000C9434000C9434000C9434000C94340080
:100030000C9434000C9434000C9434000C94340070
:100040000C9434000C9434000C9434000C94340060
:100050000C94340011241FBECFE5D8E0DEBFCDBF25
:100060000E94C4000C94D0000C94000092B39E7FB8
:1000700092BB92B322B39F70382F307F932B922B79
:1000800092BB92B3926092BBE9EFF0E03197F1F747
:1000900000C0000092B39D7F92BBF3E0FA95F1F7A8
:1000A000000022B32F7030E1839FC00111249927F3
:1000B000822B92B3892B82BB82B3826082BB89EF91
:1000C00090E00197F1F700C0000082B38D7F82BB02
:1000D000E3ECF9E03197F1F700C0000082B392B38E
:1000E0008F70892B82BB08958FEF81BB82B3806FA5
:1000F00082BB82E00E94360088E20E9436008CE0DB
:100100000E94360081E00E943600089592B391600B
:1001100092BB92B322B39F70382F307F932B922BD8
:1001200092BB92B3926092BBE9EFF0E03197F1F7A6
:1001300000C0000092B39D7F92BBF3E0FA95F1F707
:10014000000022B32F7030E1839FC0011124992752
:10015000822B92B3892B82BB82B3826082BB89EFF0
:1001600090E00197F1F700C0000082B38D7F82BB61
:10017000E3ECF9E03197F1F700C0000082B392B3ED
:100180008F70892B82BB08950E9474008FE493ECDA
:100190000197F1F700C0000081E60E948600FCCFC5
:0401A000F894FFCF01
:00000001FF
