:100000000C942A000C9434000C9434000C943400AA
:100010000C9434000C9434000C9434000C94340090
:100020000C9434000C9434000C9434000C94340080
:100030000C9434000C9434000C9434000C94340070
:100040000C9434000C9434000C9434000C94340060
:100050000C94340011241FBECFE5D8E0DEBFCDBF25
:100060000E94B6000C94BC000C94000092B39E7FDA
:1000700092BB92B39F70282F207F922B92BB92B39A
:10008000926092BBE9EFF0E03197F1F700C0000019
:1000900092B39D7F92BBE3ECF9E03197F1F700C09A
:1000A000000022B3F0E18F9FC0011124922F9F70B6
:1000B000892B82BB82B3826082BB89EF90E001977B
:1000C000F1F700C0000082B38D7F82BBE3ECF9E062
:1000D0003197F1F700C0000008958FEF81BB82E0F7
:1000E0000E94360088E20E9436008CE00E943600B2
:1000F00086E00E94360081E00E943600089592B3A7
:10010000916092BB92B39F70282F207F922B92BB5D
:1001100092B3926092BBE9EFF0E03197F1F700C043
:10012000000092B39D7F92BBE3ECF9E03197F1F7C9
:1001300000C0000022B3F0E18F9FC0011124922F74
:100140009F70892B82BB82B3826082BB89EF90E073
:100150000197F1F700C0000082B38D7F82BBE3EC12
:10016000F9E03197F1F700C0000008950E946D009A
:0C01700089E50E947F00FCCFF894FFCFCF
:00000001FF
