:100000000C942A000C943F000C943F000C943F0089
:100010000C943F000C943F000C943F000C943F0064
:100020000C943F000C943F000C943F000C943F0054
:100030000C943F000C943F000C943F000C943F0044
:100040000C943F000C943F000C943F000C943F0034
:100050000C943F0011241FBECFE5D4E0DEBFCDBF1E
:1000600010E0A0E6B0E0E4E4F7E002C005900D92F5
:10007000A436B107D9F70E94E3000C94A0030C94B6
:1000800000000E94230108950E942A01089515BAD4
:1000900092B39D7F92BB85BB82B3816082BB89EFA7
:1000A00090E00197F1F700C0000082B38E7F82BB21
:1000B00083EC99E00197F1F700C0000008958FEFFD
:1000C00084BB81B3836081BB81E00E94470088E3E9
:1000D0000E9447008EE00E944700089515BA92B32F
:1000E000926092BB85BB82B3816082BB89EF90E056
:1000F0000197F1F700C0000082B38E7F82BB83ECD2
:1001000099E00197F1F700C0000008950F931F9345
:10011000CF93DF938C01C0E0D0E007C0F801EC0F73
:10012000FD1F80810E946E002196F8010190002041
:10013000E9F73197E01BF10BCE17DF0778F3DF917A
:10014000CF911F910F910895CF93DF93CDB7DEB775
:1001500061970FB6F894DEBF0FBECDBF4AE0BE0177
:100160006F5F7F4F0E946B03CE0101960E94860055
:1001700061960FB6F894DEBF0FBECDBFDF91CF9171
:10018000089580E29EE40E9449010895BC0180E048
:1001900090E00E94700220E030EC4FE754E40E94AF
:1001A000C80120E030E04AEF54E40E94FE0220E063
:1001B00030E04AEF53E40E945C010E944102CB010F
:1001C0000E94580108950E945F000E9441000E9411
:1001D000C10005EB10E080E00E944400EC0108172C
:1001E0001907C9F3C8010197C817D907A1F30296E7
:1001F000C817D90781F381E00E944700CE010E9411
:10020000C600BE0180E090E00E94700220E030EC69
:100210004FE754E40E94C80120E030E044E353E497
:100220000E94FE020E943A02CB010E94A40080E6D6
:1002300090E00E94860083E294EF0197F1F700C0FE
:1002400000008E01C8CF87B1806487B986B183680A
:1002500086B908959AB321E030E0082E02C0220F3B
:10026000331F0A94E2F7209529232ABB97B1907F88
:1002700097B997B18F70892B87B986B1806486B999
:10028000349BFECF24B135B180E0932F820F911DB6
:1002900008959C0191B3906291BB1DBC1CBC37BDFD
:1002A00026BD8FB582688FBD8EB589618EBD0895DC
:1002B0009BBD8ABD08955058BB27AA270E94730191
:1002C0000C94C4020E94B60238F00E94BD0220F0D5
:1002D00039F49F3F19F426F40C94B3020EF4E09520
:1002E000E7FB0C94AD02E92F0E94D50258F3BA1730
:1002F000620773078407950720F079F4A6F50C943C
:10030000F7020EF4E0950B2EBA2FA02D0B01B901C8
:1003100090010C01CA01A0011124FF27591B99F07B
:10032000593F50F4503E68F11A16F040A22F232F87
:10033000342F4427585FF3CF469537952795A795D7
:10034000F0405395C9F77EF41F16BA0B620B730B7E
:10035000840BBAF09150A1F0FF0FBB1F661F771FEF
:10036000881FC2F70EC0BA0F621F731F841F48F4A4
:10037000879577956795B795F7959E3F08F0B0CF2D
:100380009395880F08F09927EE0F97958795089514
:100390000E94DC010C94C4020E94BD0258F00E942D
:1003A000B60240F029F45F3F29F00C94AD025111E0
:1003B0000C94F8020C94B3020E94D50268F39923BE
:1003C000B1F3552391F3951B550BBB27AA27621751
:1003D0007307840738F09F5F5F4F220F331F441F5E
:1003E000AA1FA9F335D00E2E3AF0E0E832D0915092
:1003F0005040E695001CCAF72BD0FE2F29D0660F7F
:10040000771F881FBB1F261737074807AB07B0E8C1
:1004100009F0BB0B802DBF01FF2793585F4F3AF0C7
:100420009E3F510578F00C94AD020C94F8025F3FAA
:10043000E4F3983ED4F3869577956795B795F7954D
:100440009F5FC9F7880F911D9695879597F9089535
:10045000E1E0660F771F881FBB1F621773078407D1
:10046000BA0720F0621B730B840BBA0BEE1F88F7E0
:10047000E09508950E9441026894B1110C94F8022D
:1004800008950E94DD0288F09F5798F0B92F9927B0
:10049000B751B0F0E1F0660F771F881F991F1AF06F
:1004A000BA95C9F714C0B13091F00E94F702B1E0DB
:1004B00008950C94F702672F782F8827B85F39F0DA
:1004C000B93FCCF3869577956795B395D9F73EF408
:1004D00090958095709561957F4F8F4F9F4F0895B0
:1004E000E89409C097FB3EF49095809570956195CE
:1004F0007F4F8F4F9F4F9923A9F0F92F96E9BB2784
:100500009395F695879577956795B795F111F8CFFF
:10051000FAF4BB0F11F460FF1BC06F5F7F4F8F4F6A
:100520009F4F16C0882311F096E911C0772321F060
:100530009EE8872F762F05C0662371F096E8862FF8
:1005400070E060E02AF09A95660F771F881FDAF74F
:10055000880F9695879597F9089597F99F6780E892
:1005600070E060E008959FEF80EC089500240A9405
:100570001616170618060906089500240A9412167E
:100580001306140605060895092E0394000C11F4B1
:10059000882352F0BB0F40F4BF2B11F460FF04C05E
:1005A0006F5F7F4F8F4F9F4F089557FD9058440FB7
:1005B000551F59F05F3F71F04795880F97FB991FC2
:1005C00061F09F3F79F0879508951216130614067F
:1005D000551FF2CF4695F1DF08C01616170618060C
:1005E000991FF1CF86957105610508940895E894E7
:1005F000BB2766277727CB0197F908950E9411033F
:100600000C94C4020E94B60238F00E94BD0220F091
:10061000952311F00C94AD020C94B30211240C94A8
:10062000F8020E94D50270F3959FC1F3950F50E038
:10063000551F629FF001729FBB27F00DB11D639F94
:10064000AA27F00DB11DAA1F649F6627B00DA11D3A
:10065000661F829F2227B00DA11D621F739FB00DE0
:10066000A11D621F839FA00D611D221F749F332750
:10067000A00D611D231F849F600D211D822F762FE9
:100680006A2F11249F5750409AF0F1F088234AF0C6
:10069000EE0FFF1FBB1F661F771F881F9150504032
:1006A000A9F79E3F510580F00C94AD020C94F8021E
:1006B0005F3FE4F3983ED4F3869577956795B795B9
:1006C000F795E7959F5FC1F7FE2B880F911D9695D3
:1006D000879597F90895BB274A3031F4992322F47E
:1006E000BDE2909581959F4F0C947703BB27FB014A
:1006F0005527AA27880F991FAA1FA41710F0A41B1B
:1007000083955051B9F7A05DAA3308F0A95DA19374
:10071000009779F7B111B1931192CB010C9490032A
:10072000DC01FC01672F71917723E1F7329704C058
:100730007C916D9370836291AE17BF07C8F30895E3
:04074000F894FFCF5B
:0407440044656700A1
:00000001FF
