S00C0000554152542E73726563DC
S11300000C942A000C9434000C9434000C943400A6
S11300100C9434000C9434000C9434000C9434008C
S11300200C9434000C9434000C9434000C9434007C
S11300300C9434000C9434000C9434000C9434006C
S11300400C9434000C9434000C9434000C9434005C
S11300500C94340011241FBECFE5D4E0DEBFCDBF25
S11300600E943F000C9461000C9400000E94460022
S113007008950E94590008950E945D0008950E9409
S113008036000E9439000E943C00FBCF81B38E7F72
S113009081BB81B3826081BB8BB182608BB98AB131
S11300A088618AB980B5866880BD8CE089B910BC46
S11300B008955F9BFECF8CB108955D9BFECF8CB9F4
S10900C00895F894FFCF3F
S9030000FC
