S00E00004354435F48572E737265633E
S11300000C942A000C9434000C9434000C943400A6
S11300100C9434000C9434000C9434000C9434008C
S11300200C9434000C9434000C9434000C9434007C
S11300300C9434000C9434000C9434000C9434006C
S11300400C9434000C9434000C9434000C9434005C
S11300500C94340011241FBECFE5D8E0DEBFCDBF21
S11300600E9436000C9453000C9400000E9443003C
S113007080E10E944A000E944C0086E00E944A00EF
S11300800E944C00F5CF87B3886087BB83B78A6131
S113009083BF08958CBF089508B601FEFDCF88B7CD
S10D00A0826088BF0895F894FFCF32
S9030000FC
