:100000000C942A000C944E000C9460000C94720026
:100010000C9434000C9434000C9434000C94340090
:100020000C9434000C9434000C9434000C94340080
:100030000C9434000C9434000C9434000C94340070
:100040000C9434000C9434000C9434000C94340060
:100050000C94340011241FBECFE5D8E0DEBFCDBF25
:100060000E9436000C9484000C9400008FEF84BB37
:1000700011BA17BA82B3806C82BB88B3806288BB26
:100080008BB7806E8BBF85B78D6085BF85B78D7F41
:1000900085BF84B7806484BF7894FFCF1F920F928E
:1000A0000FB60F9211248F939F9395B381E0892708
:1000B00085BB9F918F910F900FBE0F901F90189549
:1000C0001F920F920FB60F9211248F939F9395B3A7
:1000D0008AE0892785BB9F918F910F900FBE0F906B
:1000E0001F9018951F920F920FB60F9211248F93A5
:1000F0009F9395B384E6892785BB9F918F910F903D
:0C0100000FBE0F901F901895F894FFCFD1
:00000001FF
