:100000000C942A000C9434000C9434000C943400AA
:100010000C9434000C9434000C9434000C94340090
:100020000C9434000C9434000C9434000C94340080
:100030000C9434000C9434000C9434000C94340070
:100040000C9434000C9434000C9434000C94340060
:100050000C94340011241FBECFE5D8E0DEBFCDBF25
:100060000E9441000C9459000C9400000E9446002C
:10007000089587E00E945400682F84E00E944A009F
:1000800008950E9436000E943900FDCF87B38F7714
:1000900087BB0895662321F087B3806187BB0895ED
:1000A00087B38F7E87BB089586B3881F8827881FF4
:0600B0000895F894FFCF53
:00000001FF
