S0110000426C7565746F6F74682E737265635D
S11300000C942A000C9447000C9447000C9447006D
S11300100C9447000C9447000C9447000C94470040
S11300200C9447000C9447000C9447000C94470030
S11300300C9447000C9447000C9447000C94470020
S11300400C9447000C9447000C9447000C94470010
S11300500C94470011241FBECFE5D4E0DEBFCDBF12
S113006010E0A0E6B0E0E4E9F2E002C005900D92F1
S1130070A637B107D9F720E0A6E7B0E001C01D928A
S1130080A737B207E1F70E94EF000C9448010C94E3
S113009000000E940C0108950E941F0108950E940F
S11300A02301089582B3846082BB83E08A95F1F7CB
S11300B0000082B38B7F82BB0895CF93C82F82B395
S11300C0877F82BB80917600882321F0C5BB0E9484
S11300D0520016C085B38F7085BB85B39C2F907F6B
S11300E0892B85BB0E94520085B38F7085BB25B3D5
S11300F030E1C39FC0011124822B85BB0E945200B2
S113010083EC99E00197F1F700C00000CF910895C6
S113011081E08093760081B38C6081BB8FEF84BBD8
S113012088E30E945D0081E00E945D008EE00E94F1
S11301305D000895CF93C82F82B3886082BB8091FD
S11301407600882321F0C5BB0E94520016C085B3F7
S11301508F7085BB85B39C2F907F892B85BB0E94B4
S1130160520085B38F7085BB25B330E1C39FC001B6
S11301701124822B85BB0E94520083EC99E00197E5
S1130180F1F700C00000CF9108950F931F93CF9310
S11301908C01C0E003C00E949A00CF5FF801EC0F0D
S11301A0F11D80818111F7CFCF911F910F91089597
S11301B0611104C080580E945D00089580540E941B
S11301C05D000895CF93DF93EC01862F642F0E9486
S11301D0D800CE010E94C500DF91CF910895CF933E
S11301E0DF93CDB7DEB7A2970FB6F894DEBF0FBE8C
S11301F0CDBF0E9449000E94880080E690E00E94E2
S1130200C500CE0101960E944F0041E060E00E94CB
S1130210E2000E944C00F5CF81B38E7F81BB81B395
S1130220826081BB8BB182608BB98AB188618AB9E3
S113023080B5866880BD8CE089B910BC08955F9B49
S1130240FECF8CB108950F931F93CF938C0181E15E
S1130250E4E6F0E0D80101900D928A95E1F7C0E060
S11302600E941F018D3051F08A3041F0882331F013
S1130270F801EC0FF11D8083CF5FF2CFF801EC0F92
S1130280F11D80E28083C801CF911F910F910895E1
S1070290F894FFCF0C
S113029468692100202020202020202020202020E4
S10902A4202020200000D0
S9030000FC
