:100000000C942A000C9447000C9447000C94470071
:100010000C9447000C9447000C9447000C94470044
:100020000C9447000C9447000C9447000C94470034
:100030000C9447000C9447000C9447000C94470024
:100040000C9447000C9447000C9447000C94470014
:100050000C94470011241FBECFE5D4E0DEBFCDBF16
:1000600010E0A0E6B0E0EAE8F2E002C005900D92F0
:10007000A637B107D9F720E0A6E7B0E001C01D928E
:10008000A737B207E1F70E94EC000C9443010C94EF
:1000900000000E94070108950E941E01089582B386
:1000A000846082BB83E08A95F1F7000082B38B7F86
:1000B00082BB0895CF93C82F82B3877F82BB809184
:1000C0007600882321F0C5BB0E944F0016C085B37F
:1000D0008F7085BB85B39C2F907F892B85BB0E9439
:1000E0004F0085B38F7085BB25B330E1C39FC0013E
:1000F0001124822B85BB0E944F0083EC99E001976D
:10010000F1F700C00000CF91089581E08093760060
:1001100081B38C6081BB8FEF84BB88E30E945A005F
:1001200081E00E945A008EE00E945A000895CF9309
:10013000C82F82B3886082BB80917600882321F02B
:10014000C5BB0E944F0016C085B38F7085BB85B3B9
:100150009C2F907F892B85BB0E944F0085B38F70A9
:1001600085BB25B330E1C39FC0011124822B85BB21
:100170000E944F0083EC99E00197F1F700C0000066
:10018000CF9108950F931F93CF938C01C0E003C0CC
:100190000E949700CF5FF801EC0FF11D8081811163
:1001A000F7CFCF911F910F910895611104C080582E
:1001B0000E945A00089580540E945A000895CF93D7
:1001C000DF93EC01862F642F0E94D500CE010E94A0
:1001D000C200DF91CF910895CF93DF93CDB7DEB703
:1001E000A2970FB6F894DEBF0FBECDBF0E944900A4
:1001F0000E94850080E690E00E94C200CE01019638
:100200000E944C0041E060E00E94DF00F7CF81B324
:100210008E7F81BB81B3826081BB8BB182608BB9E1
:100220008AB188618AB980B5866880BD8CE089B959
:1002300010BC08955F9BFECF8CB108950F931F9360
:10024000CF938C0181E1E4E6F0E0D80101900D92BA
:100250008A95E1F7C0E00E941A018A3041F08823B4
:1002600031F0F801EC0FF11D8083CF5FF4CFEC2F5C
:10027000F0E03197E00FF11F80E28083C801CF9159
:0A0280001F910F910895F894FFCF2D
:10028A0068692100202020202020202020202020F2
:06029A00202020200000DE
:00000001FF
