S00D000054696D65722E7372656316
S11300000C942A000C9434000C9434000C943400A6
S11300100C9434000C9434000C9434000C9434008C
S11300200C9434000C9434000C9434000C9434007C
S11300300C9434000C9434000C9434000C9434006C
S11300400C9434000C9434000C9434000C9434005C
S11300500C94340011241FBECFE5D8E0DEBFCDBF21
S11300600E9436000C9452000C94000081E083BF7F
S113007084B3816084BB20E030E001C012BE08B6C6
S113008000FEFCCF88B7816088BF2F5F3F4F2A3FB7
S113009086E13807A4F395B381E0892785BB20E086
S10B00A030E0EDCFF894FFCF2E
S9030000FC
