:100000000C942A000C9434000C9434000C943400AA
:100010000C9434000C9434000C9434000C94340090
:100020000C9434000C9434000C9434000C94340080
:100030000C9434000C9434000C9434000C94340070
:100040000C9434000C9434000C9434000C94340060
:100050000C94340011241FBECFE5D8E0DEBFCDBF25
:100060000E94E3000C9453010C94000092B39F7023
:1000700092BB92B3282F207F922B92BB92B39D7F8D
:1000800092BB92B3916092BB000092B39E7F92BBF1
:1000900032E43A95F1F700C092B39F7092BB22B35D
:1000A00030E1839FC0011124822B82BB82B3816027
:1000B00082BB000082B38E7F82BB83EC99E0019704
:1000C000F1F700C00000089581B3806F81BB81B358
:1000D000836081BB82E00E94360088E20E94360085
:1000E00081E00E9436008CE00E94360083EF91E0B0
:1000F0000197F1F700C00000089592B39F7092BB82
:1001000092B3282F207F922B92BB92B3926092BB26
:1001100092B3916092BB000092B39E7F92BB92B368
:100120009F7092BB22B330E1839FC0011124822BC8
:1001300082BB82E48A95F1F700C082B3816082BB02
:10014000000082B38E7F82BB83EC99E00197F1F7C8
:1001500000C0000008950F931F93CF93DF938C018D
:10016000C0E0D0E003C00E947D002196F801EC0FB2
:10017000FD1F80818111F7CFDF91CF911F910F91EA
:100180000895CF93DF93CDB7DEB761970FB6F8949C
:10019000DEBF0FBECDBF4AE0BE016F5F7F4F0E9442
:1001A0001E010E94AB0061960FB6F894DEBF0FBE31
:1001B000CDBFDF91CF9108950E94F800089580E0AF
:1001C0000E94FF0008950E94DC000E9464000E94CB
:1001D000DF000E94C1002FE986E891E021508040B5
:1001E0009040E1F700C0000081E00E943600EFCFB0
:1001F00086B1836886B987B1806487B908959AB358
:1002000021E030E0082E02C0220F331F0A94E2F7EB
:10021000209529232ABB97B1907F97B997B18F700A
:10022000892B87B986B1806486B9349BFECF24B10F
:1002300035B180E0932F820F911D0895BB274A307E
:1002400031F4992322F4BDE2909581959F4F0C944F
:100250002A01BB27FB015527AA27880F991FAA1F30
:10026000A41710F0A41B83955051B9F7A05DAA33D1
:1002700008F0A95DA193009779F7B111B19311929C
:10028000CB010C944301DC01FC01672F71917723B2
:10029000E1F7329704C07C916D9370836291AE1741
:0A02A000BF07C8F30895F894FFCFDC
:00000001FF
