S012000043616C63756C61746F722E7372656308
S11300000C942A000C943F000C943F000C943F0085
S11300100C943F000C943F000C943F000C943F0060
S11300200C943F000C943F000C943F000C943F0050
S11300300C943F000C943F000C943F000C943F0040
S11300400C943F000C943F000C943F000C943F0030
S11300500C943F0011241FBECFE5D4E0DEBFCDBF1A
S113006010E0A0E6B0E0ECEDF8E002C005900D92DF
S1130070A037B107D9F70E9490000C946C040C943B
S11300800000CF92DF92EF92FF92CF93C62F4D32B2
S113009099F018F44B3231F039C04F3211F1483530
S11300A0B1F034C070E0680F711D072E000C880B8E
S11300B0990B0E941A032EC0682F70E06C1B710903
S11300C0072E000C880B990B0E941A0323C0869FED
S11300D0B0011124072E000C880B990B0E941A03FF
S11300E019C0682F70E080E090E00E9418036B0153
S11300F07C016C2F70E080E090E00E941A039B0169
S1130100AC01C701B6010E94700204C060E070E057
S113011080E89FEBCF91FF90EF90DF90CF90089510
S11301200E944D010E94C5000E94CC00D0EDD80F62
S11301308D2F90E00E9492010E94CC00C82F83343E
S113014021F481E00E943501EFCF0E945C010E94FE
S1130150CC0010ED180F133121F481E00E94350119
S1130160E3CF812F90E00E9492018DE30E945C0115
S11301704C2F612F8D2F0E9441000E94AF010E94DD
S1130180CC0081E00E943501CFCF11BA81B38F60DA
S113019081BB8FEF82BB0895CF93DF9371E0DFEFD4
S11301A0CFEF60E05BC042B3862F90E021E030E007
S11301B0062E02C0220F331F0A94E2F7209524234F
S11301C022BB42B3039683709078992324F4019759
S11301D08C6F9F6F019621E030E0F90102C0EE0FB1
S11301E0FF1F8A95E2F7CF01842B82BB20E01DC05C
S11301F080B3422F50E04C5F5F4F90E0042E02C06A
S1130200959587950A94E2F780FD0EC080B390E03F
S1130210042E02C0959587950A94E2F780FFF6CFE5
S1130220D22FC62F70E003C02F5F243008F3711162
S11302300EC00E94C500EC2FF0E0EE0FFF1FEE0F82
S1130240FF1FE05AFF4FED0FF11D80810BC089EFB6
S113025090E00197F1F700C000006F5F643008F48C
S1130260A2CF9FCFDF91CF91089515BA9BB39D7F05
S11302709BBB85BB8BB381608BBB89EF90E00197FF
S1130280F1F700C000008BB38E7F8BBB83EC99E049
S11302900197F1F700C0000008958FEF84BB8AB383
S11302A083608ABB81E00E94350188E30E943501A6
S11302B08EE00E943501089515BA9BB392609BBBF2
S11302C085BB8BB381608BBB89EF90E00197F1F71D
S11302D000C000008BB38E7F8BBB83EC99E0019749
S11302E0F1F700C0000008950F931F93CF93DF939D
S11302F08C01C0E0D0E007C0F801EC0FFD1F808145
S11303000E945C012196F80101900020E9F73197E1
S1130310E01BF10BCE17DF0778F3DF91CF911F912C
S11303200F910895CF93DF93CDB7DEB761970FB6E2
S1130330F894DEBF0FBECDBF4AE0BE016F5F7F4FB2
S11303400E943704CE0101960E94740161960FB693
S1130350F894DEBF0FBECDBFDF91CF9108958F9289
S11303609F92AF92BF92CF92DF92EF92FF92CF9380
S11303706B017C0120E030E0A9010E946B0288231C
S113038034F4F7FAF094F7F8F094C1E001C0C0E057
S1130390C701B6010E94E2024B015C0170E080E0FB
S11303A090E00E9418039B01AC01C701B6010E94B2
S11303B0FE0120E030E048EC52E40E94CA030E94AF
S11303C0E902F62EC13019F48DE20E945C01C401E9
S11303D099270E949201FF2039F08EE20E945C016D
S11303E08F2D90E00E949201CF91FF90EF90DF90CB
S11303F0CF90BF90AF909F908F9008955058BB2797
S1130400AA270E9416020C9490030E94820338F0DB
S11304100E94890320F039F49F3F19F426F40C94C8
S11304207F030EF4E095E7FB0C947903E92F0E9417
S1130430A10358F3BA17620773078407950720F0DE
S113044079F4A6F50C94C3030EF4E0950B2EBA2FA1
S1130450A02D0B01B90190010C01CA01A0011124C6
S1130460FF27591B99F0593F50F4503E68F11A1672
S1130470F040A22F232F342F4427585FF3CF469503
S113048037952795A795F0405395C9F77EF41F1625
S1130490BA0B620B730B840BBAF09150A1F0FF0FEF
S11304A0BB1F661F771F881FC2F70EC0BA0F621FDB
S11304B0731F841F48F4879577956795B795F795CB
S11304C09E3F08F0B0CF9395880F08F09927EE0F60
S11304D09795879508950E94550308F481E008953F
S11304E00E9484020C9490030E94890358F00E9495
S11304F0820340F029F45F3F29F00C9479035111F1
S11305000C94C4030C947F030E94A10368F3992301
S1130510B1F3552391F3951B550BBB27AA276217FB
S11305207307840738F09F5F5F4F220F331F441F08
S1130530AA1FA9F335D00E2E3AF0E0E832D091503C
S11305405040E695001CCAF72BD0FE2F29D0660F29
S1130550771F881FBB1F261737074807AB07B0E86C
S113056009F0BB0B802DBF01FF2793585F4F3AF072
S11305709E3F510578F00C9479030C94C4035F3FBB
S1130580E4F3983ED4F3869577956795B795F795F8
S11305909F5FC9F7880F911D9695879597F90895E0
S11305A0E1E0660F771F881FBB1F6217730784077C
S11305B0BA0720F0621B730B840BBA0BEE1F88F78B
S11305C0E09508950E94E9026894B1110C94C40363
S11305D008950E94A90388F09F5798F0B92F99278E
S11305E0B751B0F0E1F0660F771F881F991F1AF01A
S11305F0BA95C9F714C0B13091F00E94C303B1E0B9
S113060008950C94C303672F782F8827B85F39F0B7
S1130610B93FCCF3869577956795B395D9F73EF4B2
S113062090958095709561957F4F8F4F9F4F08955A
S1130630E89409C097FB3EF4909580957095619578
S11306407F4F8F4F9F4F9923A9F0F92F96E9BB272E
S11306509395F695879577956795B795F111F8CFAA
S1130660FAF4BB0F11F460FF1BC06F5F7F4F8F4F15
S11306709F4F16C0882311F096E911C0772321F00B
S11306809EE8872F762F05C0662371F096E8862FA3
S113069070E060E02AF09A95660F771F881FDAF7FA
S11306A0880F9695879597F90895990F0008550F27
S11306B0AA0BE0E8FEEF16161706E807F907C0F0E4
S11306C012161306E407F50798F0621B730B840BEC
S11306D0950B39F40A2661F0232B242B252B21F4C6
S11306E008950A2609F4A140A6958FEF811D811D66
S11306F0089597F99F6780E870E060E008959FEFA0
S113070080EC089500240A941616170618060906A4
S1130710089500240A941216130614060506089573
S1130720092E0394000C11F4882352F0BB0F40F4FB
S1130730BF2B11F460FF04C06F5F7F4F8F4F9F4F3B
S1130740089557FD9058440F551F59F05F3F71F0BD
S11307504795880F97FB991F61F09F3F79F0879524
S11307600895121613061406551FF2CF4695F1DFAD
S113077008C0161617061806991FF1CF869571053D
S1130780610508940895E894BB2766277727CB0171
S113079097F908950E94DD030C9490030E9482034C
S11307A038F00E94890320F0952311F00C9479030A
S11307B00C947F0311240C94C4030E94A10370F3CE
S11307C0959FC1F3950F50E0551F629FF001729FF2
S11307D0BB27F00DB11D639FAA27F00DB11DAA1F01
S11307E0649F6627B00DA11D661F829F2227B00D4E
S11307F0A11D621F739FB00DA11D621F839FA00DD9
S1130800611D221F749F3327A00D611D231F849F28
S1130810600D211D822F762F6A2F11249F5750407F
S11308209AF0F1F088234AF0EE0FFF1FBB1F661FFA
S1130830771F881F91505040A9F79E3F510580F0C3
S11308400C9479030C94C4035F3FE4F3983ED4F30F
S1130850869577956795B795F795E7959F5FC1F767
S1130860FE2B880F911D9695879597F90895BB27C0
S11308704A3031F4992322F4BDE2909581959F4F3B
S11308800C944304BB27FB015527AA27880F991F03
S1130890AA1FA41710F0A41B83955051B9F7A05DAB
S11308A0AA3308F0A95DA193009779F7B111B19328
S11308B01192CB010C945C04DC01FC01672F719153
S11308C07723E1F7329704C07C916D937083629132
S10F08D0AE17BF07C8F30895F894FFCFDB
S11308DC3132332B3435362D3738395843303D2F9C
S9030000FC
