:100000000C942A000C943F000C943F000C943F0089
:100010000C943F000C943F000C943F000C943F0064
:100020000C943F000C943F000C943F000C943F0054
:100030000C943F000C943F000C943F000C943F0044
:100040000C943F000C943F000C943F000C943F0034
:100050000C943F0011241FBECFE5D8E0DEBFCDBF1A
:1000600010E0A0E6B0E0EAEFF1E002C005900D92EA
:10007000A63AB107D9F70E9494000C94FB000C94A7
:1000800000000E94AA000895CF932DEC829F312D8D
:100090001124932F969596959695990F492F440F75
:1000A000440F940F891B982F832F869586958695EC
:1000B000829F212D1124C22FC695C695C6952C2F3F
:1000C000220FC22FCC0FCC0F2C0FC82FC21B292FF1
:1000D00030E0C901880F991F880F991F880F991F59
:1000E000821B930B805A9F4F0E94B1002C2F30E04F
:1000F000C901880F991F880F991F880F991F821BAC
:10010000930B805A9F4F0E94D600CF9108950E9472
:100110009D000895CF930E94A100C82F0E94A500C2
:100120008C0F8F71CF9108950E9441000E9487002B
:100130000E948A000E944400FBCF1ABA8FEF8BBB4B
:10014000089589B38F708095089589B382958F70D3
:10015000809508958FE781BB84BB8EEF82BB85BB02
:100160000895BC0190E01FC0FB01E90FF11D208143
:10017000222361F082B321E030E0092E02C0220F79
:10018000331F0A94E2F7282B22BB0CC042B321E0B4
:1001900030E0092E02C0220F331F0A94E2F72095A7
:1001A000242322BB9F5F9730F8F20895BC0190E0B2
:1001B0001FC0FB01E90FF11D2081222361F085B3EF
:1001C00021E030E0092E02C0220F331F0A94E2F72B
:1001D000282B25BB0CC045B321E030E0092E02C01E
:1001E000220F331F0A94E2F72095242325BB9F5F3B
:0A01F0009730F8F20895F894FFCF5D
:1001FA0001010101010100000101000000000101EB
:10020A0000010100010101010100000100010100DA
:10021A0000010101000101000101000101010100C9
:10022A0001010101000000000101010101010101B8
:06023A00010101000101B9
:00000001FF
